{
  "contractName": "GeneralContract",
  "abi": [
    {
      "anonymous": false,
      "inputs": [
        {
          "indexed": false,
          "internalType": "address",
          "name": "recipient",
          "type": "address"
        },
        {
          "indexed": false,
          "internalType": "uint256",
          "name": "voteId",
          "type": "uint256"
        }
      ],
      "name": "AddVote",
      "type": "event"
    },
    {
      "inputs": [
        {
          "internalType": "uint256",
          "name": "",
          "type": "uint256"
        }
      ],
      "name": "voteToOwner",
      "outputs": [
        {
          "internalType": "address",
          "name": "",
          "type": "address"
        }
      ],
      "stateMutability": "view",
      "type": "function",
      "constant": true
    },
    {
      "inputs": [
        {
          "internalType": "uint256",
          "name": "",
          "type": "uint256"
        }
      ],
      "name": "votes",
      "outputs": [
        {
          "internalType": "uint256",
          "name": "id",
          "type": "uint256"
        },
        {
          "internalType": "uint256",
          "name": "voterId",
          "type": "uint256"
        },
        {
          "internalType": "uint256",
          "name": "year",
          "type": "uint256"
        },
        {
          "internalType": "uint256",
          "name": "congressionalCandidateId",
          "type": "uint256"
        },
        {
          "internalType": "uint256",
          "name": "stateCandidateId",
          "type": "uint256"
        },
        {
          "internalType": "uint256",
          "name": "upperStateLegislativeCandidateId",
          "type": "uint256"
        },
        {
          "internalType": "string",
          "name": "congressionalCandidate",
          "type": "string"
        },
        {
          "internalType": "string",
          "name": "stateCandidate",
          "type": "string"
        },
        {
          "internalType": "string",
          "name": "upperStateLegislativeCandidate",
          "type": "string"
        }
      ],
      "stateMutability": "view",
      "type": "function",
      "constant": true
    },
    {
      "inputs": [
        {
          "internalType": "uint256",
          "name": "_voterId",
          "type": "uint256"
        },
        {
          "internalType": "uint256",
          "name": "_year",
          "type": "uint256"
        },
        {
          "internalType": "uint256",
          "name": "_congressionalCandidateId",
          "type": "uint256"
        },
        {
          "internalType": "uint256",
          "name": "_stateCandidateId",
          "type": "uint256"
        },
        {
          "internalType": "uint256",
          "name": "_upperStateLegislativeCandidateId",
          "type": "uint256"
        },
        {
          "internalType": "string",
          "name": "_congressionalCandidate",
          "type": "string"
        },
        {
          "internalType": "string",
          "name": "_stateCandidate",
          "type": "string"
        },
        {
          "internalType": "string",
          "name": "_upperStateLegislativeCandidate",
          "type": "string"
        }
      ],
      "name": "addVote",
      "outputs": [],
      "stateMutability": "nonpayable",
      "type": "function"
    },
    {
      "inputs": [],
      "name": "getMyVotes",
      "outputs": [
        {
          "components": [
            {
              "internalType": "uint256",
              "name": "id",
              "type": "uint256"
            },
            {
              "internalType": "uint256",
              "name": "voterId",
              "type": "uint256"
            },
            {
              "internalType": "uint256",
              "name": "year",
              "type": "uint256"
            },
            {
              "internalType": "uint256",
              "name": "congressionalCandidateId",
              "type": "uint256"
            },
            {
              "internalType": "uint256",
              "name": "stateCandidateId",
              "type": "uint256"
            },
            {
              "internalType": "uint256",
              "name": "upperStateLegislativeCandidateId",
              "type": "uint256"
            },
            {
              "internalType": "string",
              "name": "congressionalCandidate",
              "type": "string"
            },
            {
              "internalType": "string",
              "name": "stateCandidate",
              "type": "string"
            },
            {
              "internalType": "string",
              "name": "upperStateLegislativeCandidate",
              "type": "string"
            }
          ],
          "internalType": "struct GeneralContract.Vote[]",
          "name": "",
          "type": "tuple[]"
        }
      ],
      "stateMutability": "view",
      "type": "function",
      "constant": true
    }
  ],
  "bytecode": "0x608060405234801561000f575f80fd5b506112a88061001d5f395ff3fe608060405234801561000f575f80fd5b506004361061004a575f3560e01c80630604e2ba1461004e5780635df813301461006a578063a99b479b146100a2578063e6ee3e64146100c0575b5f80fd5b61006860048036038101906100639190610a2e565b6100f0565b005b610084600480360381019061007f9190610b33565b610271565b60405161009999989796959493929190610be7565b60405180910390f35b6100aa61045b565b6040516100b79190610e69565b60405180910390f35b6100da60048036038101906100d59190610b33565b610838565b6040516100e79190610ec8565b60405180910390f35b5f808054905090505f6040518061012001604052808381526020018b81526020018a815260200189815260200188815260200187815260200186815260200185815260200184815250908060018154018082558091505060019003905f5260205f2090600902015f909190919091505f820151815f01556020820151816001015560408201518160020155606082015181600301556080820151816004015560a0820151816005015560c08201518160060190816101ae91906110db565b5060e08201518160070190816101c491906110db565b506101008201518160080190816101db91906110db565b5050503360015f8381526020019081526020015f205f6101000a81548173ffffffffffffffffffffffffffffffffffffffff021916908373ffffffffffffffffffffffffffffffffffffffff1602179055507f499390774120763b71dfe4188dd96eb13afb0237a4e8ec06a39bfb555a2bba40338260405161025e9291906111aa565b60405180910390a1505050505050505050565b5f818154811061027f575f80fd5b905f5260205f2090600902015f91509050805f0154908060010154908060020154908060030154908060040154908060050154908060060180546102c290610f0e565b80601f01602080910402602001604051908101604052809291908181526020018280546102ee90610f0e565b80156103395780601f1061031057610100808354040283529160200191610339565b820191905f5260205f20905b81548152906001019060200180831161031c57829003601f168201915b50505050509080600701805461034e90610f0e565b80601f016020809104026020016040519081016040528092919081815260200182805461037a90610f0e565b80156103c55780601f1061039c576101008083540402835291602001916103c5565b820191905f5260205f20905b8154815290600101906020018083116103a857829003601f168201915b5050505050908060080180546103da90610f0e565b80601f016020809104026020016040519081016040528092919081815260200182805461040690610f0e565b80156104515780601f1061042857610100808354040283529160200191610451565b820191905f5260205f20905b81548152906001019060200180831161043457829003601f168201915b5050505050905089565b60605f808054905067ffffffffffffffff81111561047c5761047b61090a565b5b6040519080825280602002602001820160405280156104b557816020015b6104a2610868565b81526020019060019003908161049a5790505b5090505f805b5f80549050811015610780573373ffffffffffffffffffffffffffffffffffffffff1660015f8381526020019081526020015f205f9054906101000a900473ffffffffffffffffffffffffffffffffffffffff1673ffffffffffffffffffffffffffffffffffffffff160361076d575f818154811061053d5761053c6111d1565b5b905f5260205f209060090201604051806101200160405290815f820154815260200160018201548152602001600282015481526020016003820154815260200160048201548152602001600582015481526020016006820180546105a090610f0e565b80601f01602080910402602001604051908101604052809291908181526020018280546105cc90610f0e565b80156106175780601f106105ee57610100808354040283529160200191610617565b820191905f5260205f20905b8154815290600101906020018083116105fa57829003601f168201915b5050505050815260200160078201805461063090610f0e565b80601f016020809104026020016040519081016040528092919081815260200182805461065c90610f0e565b80156106a75780601f1061067e576101008083540402835291602001916106a7565b820191905f5260205f20905b81548152906001019060200180831161068a57829003601f168201915b505050505081526020016008820180546106c090610f0e565b80601f01602080910402602001604051908101604052809291908181526020018280546106ec90610f0e565b80156107375780601f1061070e57610100808354040283529160200191610737565b820191905f5260205f20905b81548152906001019060200180831161071a57829003601f168201915b505050505081525050838381518110610753576107526111d1565b5b602002602001018190525081806107699061122b565b9250505b80806107789061122b565b9150506104bb565b505f8167ffffffffffffffff81111561079c5761079b61090a565b5b6040519080825280602002602001820160405280156107d557816020015b6107c2610868565b8152602001906001900390816107ba5790505b5090505f5b8281101561082e578381815181106107f5576107f46111d1565b5b60200260200101518282815181106108105761080f6111d1565b5b602002602001018190525080806108269061122b565b9150506107da565b5080935050505090565b6001602052805f5260405f205f915054906101000a900473ffffffffffffffffffffffffffffffffffffffff1681565b6040518061012001604052805f81526020015f81526020015f81526020015f81526020015f81526020015f81526020016060815260200160608152602001606081525090565b5f604051905090565b5f80fd5b5f80fd5b5f819050919050565b6108d1816108bf565b81146108db575f80fd5b50565b5f813590506108ec816108c8565b92915050565b5f80fd5b5f80fd5b5f601f19601f8301169050919050565b7f4e487b71000000000000000000000000000000000000000000000000000000005f52604160045260245ffd5b610940826108fa565b810181811067ffffffffffffffff8211171561095f5761095e61090a565b5b80604052505050565b5f6109716108ae565b905061097d8282610937565b919050565b5f67ffffffffffffffff82111561099c5761099b61090a565b5b6109a5826108fa565b9050602081019050919050565b828183375f83830152505050565b5f6109d26109cd84610982565b610968565b9050828152602081018484840111156109ee576109ed6108f6565b5b6109f98482856109b2565b509392505050565b5f82601f830112610a1557610a146108f2565b5b8135610a258482602086016109c0565b91505092915050565b5f805f805f805f80610100898b031215610a4b57610a4a6108b7565b5b5f610a588b828c016108de565b9850506020610a698b828c016108de565b9750506040610a7a8b828c016108de565b9650506060610a8b8b828c016108de565b9550506080610a9c8b828c016108de565b94505060a089013567ffffffffffffffff811115610abd57610abc6108bb565b5b610ac98b828c01610a01565b93505060c089013567ffffffffffffffff811115610aea57610ae96108bb565b5b610af68b828c01610a01565b92505060e089013567ffffffffffffffff811115610b1757610b166108bb565b5b610b238b828c01610a01565b9150509295985092959890939650565b5f60208284031215610b4857610b476108b7565b5b5f610b55848285016108de565b91505092915050565b610b67816108bf565b82525050565b5f81519050919050565b5f82825260208201905092915050565b5f5b83811015610ba4578082015181840152602081019050610b89565b5f8484015250505050565b5f610bb982610b6d565b610bc38185610b77565b9350610bd3818560208601610b87565b610bdc816108fa565b840191505092915050565b5f61012082019050610bfb5f83018c610b5e565b610c08602083018b610b5e565b610c15604083018a610b5e565b610c226060830189610b5e565b610c2f6080830188610b5e565b610c3c60a0830187610b5e565b81810360c0830152610c4e8186610baf565b905081810360e0830152610c628185610baf565b9050818103610100830152610c778184610baf565b90509a9950505050505050505050565b5f81519050919050565b5f82825260208201905092915050565b5f819050602082019050919050565b610cb9816108bf565b82525050565b5f82825260208201905092915050565b5f610cd982610b6d565b610ce38185610cbf565b9350610cf3818560208601610b87565b610cfc816108fa565b840191505092915050565b5f61012083015f830151610d1d5f860182610cb0565b506020830151610d306020860182610cb0565b506040830151610d436040860182610cb0565b506060830151610d566060860182610cb0565b506080830151610d696080860182610cb0565b5060a0830151610d7c60a0860182610cb0565b5060c083015184820360c0860152610d948282610ccf565b91505060e083015184820360e0860152610dae8282610ccf565b915050610100830151848203610100860152610dca8282610ccf565b9150508091505092915050565b5f610de28383610d07565b905092915050565b5f602082019050919050565b5f610e0082610c87565b610e0a8185610c91565b935083602082028501610e1c85610ca1565b805f5b85811015610e575784840389528151610e388582610dd7565b9450610e4383610dea565b925060208a01995050600181019050610e1f565b50829750879550505050505092915050565b5f6020820190508181035f830152610e818184610df6565b905092915050565b5f73ffffffffffffffffffffffffffffffffffffffff82169050919050565b5f610eb282610e89565b9050919050565b610ec281610ea8565b82525050565b5f602082019050610edb5f830184610eb9565b92915050565b7f4e487b71000000000000000000000000000000000000000000000000000000005f52602260045260245ffd5b5f6002820490506001821680610f2557607f821691505b602082108103610f3857610f37610ee1565b5b50919050565b5f819050815f5260205f209050919050565b5f6020601f8301049050919050565b5f82821b905092915050565b5f60088302610f9a7fffffffffffffffffffffffffffffffffffffffffffffffffffffffffffffffff82610f5f565b610fa48683610f5f565b95508019841693508086168417925050509392505050565b5f819050919050565b5f610fdf610fda610fd5846108bf565b610fbc565b6108bf565b9050919050565b5f819050919050565b610ff883610fc5565b61100c61100482610fe6565b848454610f6b565b825550505050565b5f90565b611020611014565b61102b818484610fef565b505050565b5b8181101561104e576110435f82611018565b600181019050611031565b5050565b601f8211156110935761106481610f3e565b61106d84610f50565b8101602085101561107c578190505b61109061108885610f50565b830182611030565b50505b505050565b5f82821c905092915050565b5f6110b35f1984600802611098565b1980831691505092915050565b5f6110cb83836110a4565b9150826002028217905092915050565b6110e482610b6d565b67ffffffffffffffff8111156110fd576110fc61090a565b5b6111078254610f0e565b611112828285611052565b5f60209050601f831160018114611143575f8415611131578287015190505b61113b85826110c0565b8655506111a2565b601f19841661115186610f3e565b5f5b8281101561117857848901518255600182019150602085019450602081019050611153565b868310156111955784890151611191601f8916826110a4565b8355505b6001600288020188555050505b505050505050565b5f6040820190506111bd5f830185610eb9565b6111ca6020830184610b5e565b9392505050565b7f4e487b71000000000000000000000000000000000000000000000000000000005f52603260045260245ffd5b7f4e487b71000000000000000000000000000000000000000000000000000000005f52601160045260245ffd5b5f611235826108bf565b91507fffffffffffffffffffffffffffffffffffffffffffffffffffffffffffffffff8203611267576112666111fe565b5b60018201905091905056fea26469706673582212204ca85dd9b889c57dd5aa4319059bd5831aa101ebe7a1d09219cc1a4ec88c063f64736f6c63430008150033",
  "immutableReferences": {},
  "source": "// SPDX-License-Identifier: MIT\npragma solidity >=0.4.22 <0.9.0;\n\ncontract GeneralContract {\n  event AddVote(address recipient, uint voteId);\n\n  struct Vote {\n    uint id;\n    uint voterId;\n    uint year;\n    uint congressionalCandidateId;\n    uint stateCandidateId;\n    uint upperStateLegislativeCandidateId;\n    string congressionalCandidate;\n    string stateCandidate;\n    string upperStateLegislativeCandidate;\n  }\n\n  Vote[] public votes;\n  mapping(uint256 => address) public voteToOwner;\n\n  function addVote(\n    uint _voterId,\n    uint _year,\n    uint _congressionalCandidateId,\n    uint _stateCandidateId,\n    uint _upperStateLegislativeCandidateId,\n    string memory _congressionalCandidate,\n    string memory _stateCandidate,\n    string memory _upperStateLegislativeCandidate\n  ) external {\n    uint id = votes.length;\n    votes.push(Vote(id, _voterId, _year, _congressionalCandidateId, _stateCandidateId, _upperStateLegislativeCandidateId, _congressionalCandidate, _stateCandidate, _upperStateLegislativeCandidate));\n    voteToOwner[id] = msg.sender;\n    emit AddVote(msg.sender, id);\n  }\n\n  function getMyVotes() external view returns (Vote[] memory) {\n    Vote[] memory temporary = new Vote[](votes.length);\n    uint counter = 0;\n    for (uint i = 0; i < votes.length; i++) {\n      if (voteToOwner[i] == msg.sender) {\n        temporary[counter] = votes[i];\n        counter++;\n      }\n    }\n    Vote[] memory myVotes = new Vote[](counter);\n    for (uint i = 0; i < counter; i++) {\n      myVotes[i] = temporary[i];\n    }\n    return myVotes;\n  }\n}\n",
  "sourcePath": "/home/pjsingh22/trustballot/backend/contracts/GeneralContract.sol",
  "compiler": {
    "name": "solc",
    "version": "0.8.21+commit.d9974bed.Emscripten.clang"
  },
  "schemaVersion": "3.4.16",
  "updatedAt": "2024-01-20T22:36:37.109Z",
  "networkType": "ethereum",
  "devdoc": {
    "kind": "dev",
    "methods": {},
    "version": 1
  },
  "userdoc": {
    "kind": "user",
    "methods": {},
    "version": 1
  }
}