{
  "contractName": "PrimaryContract",
  "abi": [
    {
      "anonymous": false,
      "inputs": [
        {
          "indexed": false,
          "internalType": "address",
          "name": "recipient",
          "type": "address"
        },
        {
          "indexed": false,
          "internalType": "uint256",
          "name": "voteId",
          "type": "uint256"
        }
      ],
      "name": "AddVote",
      "type": "event"
    },
    {
      "inputs": [
        {
          "internalType": "uint256",
          "name": "",
          "type": "uint256"
        }
      ],
      "name": "voteToOwner",
      "outputs": [
        {
          "internalType": "address",
          "name": "",
          "type": "address"
        }
      ],
      "stateMutability": "view",
      "type": "function",
      "constant": true
    },
    {
      "inputs": [
        {
          "internalType": "uint256",
          "name": "",
          "type": "uint256"
        }
      ],
      "name": "votes",
      "outputs": [
        {
          "internalType": "uint256",
          "name": "id",
          "type": "uint256"
        },
        {
          "internalType": "uint256",
          "name": "voterId",
          "type": "uint256"
        },
        {
          "internalType": "uint256",
          "name": "congressionalCandidateId",
          "type": "uint256"
        },
        {
          "internalType": "uint256",
          "name": "stateCandidateId",
          "type": "uint256"
        },
        {
          "internalType": "uint256",
          "name": "upperStateLegislativeCandidateId",
          "type": "uint256"
        },
        {
          "internalType": "uint256",
          "name": "lowerStateLegislativeCandidateId",
          "type": "uint256"
        },
        {
          "internalType": "string",
          "name": "congressionalCandidate",
          "type": "string"
        },
        {
          "internalType": "string",
          "name": "stateCandidate",
          "type": "string"
        },
        {
          "internalType": "string",
          "name": "upperStateLegislativeCandidate",
          "type": "string"
        },
        {
          "internalType": "string",
          "name": "lowerStateLegislativeCandidate",
          "type": "string"
        }
      ],
      "stateMutability": "view",
      "type": "function",
      "constant": true
    },
    {
      "inputs": [
        {
          "internalType": "uint256",
          "name": "_voterId",
          "type": "uint256"
        },
        {
          "internalType": "uint256",
          "name": "_congressionalCandidateId",
          "type": "uint256"
        },
        {
          "internalType": "uint256",
          "name": "_stateCandidateId",
          "type": "uint256"
        },
        {
          "internalType": "uint256",
          "name": "_upperStateLegislativeCandidateId",
          "type": "uint256"
        },
        {
          "internalType": "uint256",
          "name": "_lowerStateLegislativeCandidateId",
          "type": "uint256"
        },
        {
          "internalType": "string",
          "name": "_congressionalCandidate",
          "type": "string"
        },
        {
          "internalType": "string",
          "name": "_stateCandidate",
          "type": "string"
        },
        {
          "internalType": "string",
          "name": "_upperStateLegislativeCandidate",
          "type": "string"
        },
        {
          "internalType": "string",
          "name": "_lowerStateLegislativeCandidate",
          "type": "string"
        }
      ],
      "name": "addVote",
      "outputs": [],
      "stateMutability": "nonpayable",
      "type": "function"
    },
    {
      "inputs": [],
      "name": "getMyVotes",
      "outputs": [
        {
          "components": [
            {
              "internalType": "uint256",
              "name": "id",
              "type": "uint256"
            },
            {
              "internalType": "uint256",
              "name": "voterId",
              "type": "uint256"
            },
            {
              "internalType": "uint256",
              "name": "congressionalCandidateId",
              "type": "uint256"
            },
            {
              "internalType": "uint256",
              "name": "stateCandidateId",
              "type": "uint256"
            },
            {
              "internalType": "uint256",
              "name": "upperStateLegislativeCandidateId",
              "type": "uint256"
            },
            {
              "internalType": "uint256",
              "name": "lowerStateLegislativeCandidateId",
              "type": "uint256"
            },
            {
              "internalType": "string",
              "name": "congressionalCandidate",
              "type": "string"
            },
            {
              "internalType": "string",
              "name": "stateCandidate",
              "type": "string"
            },
            {
              "internalType": "string",
              "name": "upperStateLegislativeCandidate",
              "type": "string"
            },
            {
              "internalType": "string",
              "name": "lowerStateLegislativeCandidate",
              "type": "string"
            }
          ],
          "internalType": "struct PrimaryContract.Vote[]",
          "name": "",
          "type": "tuple[]"
        }
      ],
      "stateMutability": "view",
      "type": "function",
      "constant": true
    }
  ],
  "bytecode": "0x608060405234801561000f575f80fd5b5061144b8061001d5f395ff3fe608060405234801561000f575f80fd5b506004361061004a575f3560e01c8063576f10261461004e5780635df813301461006a578063a99b479b146100a3578063e6ee3e64146100c1575b5f80fd5b61006860048036038101906100639190610b70565b6100f1565b005b610084600480360381019061007f9190610ca4565b610290565b60405161009a9a99989796959493929190610d58565b60405180910390f35b6100ab610506565b6040516100b8919061100c565b60405180910390f35b6100db60048036038101906100d69190610ca4565b610973565b6040516100e8919061106b565b60405180910390f35b5f808054905090505f6040518061014001604052808381526020018c81526020018b81526020018a815260200189815260200188815260200187815260200186815260200185815260200184815250908060018154018082558091505060019003905f5260205f2090600a02015f909190919091505f820151815f01556020820151816001015560408201518160020155606082015181600301556080820151816004015560a0820151816005015560c08201518160060190816101b5919061127e565b5060e08201518160070190816101cb919061127e565b506101008201518160080190816101e2919061127e565b506101208201518160090190816101f9919061127e565b5050503360015f8381526020019081526020015f205f6101000a81548173ffffffffffffffffffffffffffffffffffffffff021916908373ffffffffffffffffffffffffffffffffffffffff1602179055507f499390774120763b71dfe4188dd96eb13afb0237a4e8ec06a39bfb555a2bba40338260405161027c92919061134d565b60405180910390a150505050505050505050565b5f818154811061029e575f80fd5b905f5260205f2090600a02015f91509050805f0154908060010154908060020154908060030154908060040154908060050154908060060180546102e1906110b1565b80601f016020809104026020016040519081016040528092919081815260200182805461030d906110b1565b80156103585780601f1061032f57610100808354040283529160200191610358565b820191905f5260205f20905b81548152906001019060200180831161033b57829003601f168201915b50505050509080600701805461036d906110b1565b80601f0160208091040260200160405190810160405280929190818152602001828054610399906110b1565b80156103e45780601f106103bb576101008083540402835291602001916103e4565b820191905f5260205f20905b8154815290600101906020018083116103c757829003601f168201915b5050505050908060080180546103f9906110b1565b80601f0160208091040260200160405190810160405280929190818152602001828054610425906110b1565b80156104705780601f1061044757610100808354040283529160200191610470565b820191905f5260205f20905b81548152906001019060200180831161045357829003601f168201915b505050505090806009018054610485906110b1565b80601f01602080910402602001604051908101604052809291908181526020018280546104b1906110b1565b80156104fc5780601f106104d3576101008083540402835291602001916104fc565b820191905f5260205f20905b8154815290600101906020018083116104df57829003601f168201915b505050505090508a565b60605f808054905067ffffffffffffffff81111561052757610526610a4c565b5b60405190808252806020026020018201604052801561056057816020015b61054d6109a3565b8152602001906001900390816105455790505b5090505f805b5f805490508110156108bb573373ffffffffffffffffffffffffffffffffffffffff1660015f8381526020019081526020015f205f9054906101000a900473ffffffffffffffffffffffffffffffffffffffff1673ffffffffffffffffffffffffffffffffffffffff16036108a8575f81815481106105e8576105e7611374565b5b905f5260205f2090600a0201604051806101400160405290815f8201548152602001600182015481526020016002820154815260200160038201548152602001600482015481526020016005820154815260200160068201805461064b906110b1565b80601f0160208091040260200160405190810160405280929190818152602001828054610677906110b1565b80156106c25780601f10610699576101008083540402835291602001916106c2565b820191905f5260205f20905b8154815290600101906020018083116106a557829003601f168201915b505050505081526020016007820180546106db906110b1565b80601f0160208091040260200160405190810160405280929190818152602001828054610707906110b1565b80156107525780601f1061072957610100808354040283529160200191610752565b820191905f5260205f20905b81548152906001019060200180831161073557829003601f168201915b5050505050815260200160088201805461076b906110b1565b80601f0160208091040260200160405190810160405280929190818152602001828054610797906110b1565b80156107e25780601f106107b9576101008083540402835291602001916107e2565b820191905f5260205f20905b8154815290600101906020018083116107c557829003601f168201915b505050505081526020016009820180546107fb906110b1565b80601f0160208091040260200160405190810160405280929190818152602001828054610827906110b1565b80156108725780601f1061084957610100808354040283529160200191610872565b820191905f5260205f20905b81548152906001019060200180831161085557829003601f168201915b50505050508152505083838151811061088e5761088d611374565b5b602002602001018190525081806108a4906113ce565b9250505b80806108b3906113ce565b915050610566565b505f8167ffffffffffffffff8111156108d7576108d6610a4c565b5b60405190808252806020026020018201604052801561091057816020015b6108fd6109a3565b8152602001906001900390816108f55790505b5090505f5b82811015610969578381815181106109305761092f611374565b5b602002602001015182828151811061094b5761094a611374565b5b60200260200101819052508080610961906113ce565b915050610915565b5080935050505090565b6001602052805f5260405f205f915054906101000a900473ffffffffffffffffffffffffffffffffffffffff1681565b6040518061014001604052805f81526020015f81526020015f81526020015f81526020015f81526020015f8152602001606081526020016060815260200160608152602001606081525090565b5f604051905090565b5f80fd5b5f80fd5b5f819050919050565b610a1381610a01565b8114610a1d575f80fd5b50565b5f81359050610a2e81610a0a565b92915050565b5f80fd5b5f80fd5b5f601f19601f8301169050919050565b7f4e487b71000000000000000000000000000000000000000000000000000000005f52604160045260245ffd5b610a8282610a3c565b810181811067ffffffffffffffff82111715610aa157610aa0610a4c565b5b80604052505050565b5f610ab36109f0565b9050610abf8282610a79565b919050565b5f67ffffffffffffffff821115610ade57610add610a4c565b5b610ae782610a3c565b9050602081019050919050565b828183375f83830152505050565b5f610b14610b0f84610ac4565b610aaa565b905082815260208101848484011115610b3057610b2f610a38565b5b610b3b848285610af4565b509392505050565b5f82601f830112610b5757610b56610a34565b5b8135610b67848260208601610b02565b91505092915050565b5f805f805f805f805f6101208a8c031215610b8e57610b8d6109f9565b5b5f610b9b8c828d01610a20565b9950506020610bac8c828d01610a20565b9850506040610bbd8c828d01610a20565b9750506060610bce8c828d01610a20565b9650506080610bdf8c828d01610a20565b95505060a08a013567ffffffffffffffff811115610c0057610bff6109fd565b5b610c0c8c828d01610b43565b94505060c08a013567ffffffffffffffff811115610c2d57610c2c6109fd565b5b610c398c828d01610b43565b93505060e08a013567ffffffffffffffff811115610c5a57610c596109fd565b5b610c668c828d01610b43565b9250506101008a013567ffffffffffffffff811115610c8857610c876109fd565b5b610c948c828d01610b43565b9150509295985092959850929598565b5f60208284031215610cb957610cb86109f9565b5b5f610cc684828501610a20565b91505092915050565b610cd881610a01565b82525050565b5f81519050919050565b5f82825260208201905092915050565b5f5b83811015610d15578082015181840152602081019050610cfa565b5f8484015250505050565b5f610d2a82610cde565b610d348185610ce8565b9350610d44818560208601610cf8565b610d4d81610a3c565b840191505092915050565b5f61014082019050610d6c5f83018d610ccf565b610d79602083018c610ccf565b610d86604083018b610ccf565b610d93606083018a610ccf565b610da06080830189610ccf565b610dad60a0830188610ccf565b81810360c0830152610dbf8187610d20565b905081810360e0830152610dd38186610d20565b9050818103610100830152610de88185610d20565b9050818103610120830152610dfd8184610d20565b90509b9a5050505050505050505050565b5f81519050919050565b5f82825260208201905092915050565b5f819050602082019050919050565b610e4081610a01565b82525050565b5f82825260208201905092915050565b5f610e6082610cde565b610e6a8185610e46565b9350610e7a818560208601610cf8565b610e8381610a3c565b840191505092915050565b5f61014083015f830151610ea45f860182610e37565b506020830151610eb76020860182610e37565b506040830151610eca6040860182610e37565b506060830151610edd6060860182610e37565b506080830151610ef06080860182610e37565b5060a0830151610f0360a0860182610e37565b5060c083015184820360c0860152610f1b8282610e56565b91505060e083015184820360e0860152610f358282610e56565b915050610100830151848203610100860152610f518282610e56565b915050610120830151848203610120860152610f6d8282610e56565b9150508091505092915050565b5f610f858383610e8e565b905092915050565b5f602082019050919050565b5f610fa382610e0e565b610fad8185610e18565b935083602082028501610fbf85610e28565b805f5b85811015610ffa5784840389528151610fdb8582610f7a565b9450610fe683610f8d565b925060208a01995050600181019050610fc2565b50829750879550505050505092915050565b5f6020820190508181035f8301526110248184610f99565b905092915050565b5f73ffffffffffffffffffffffffffffffffffffffff82169050919050565b5f6110558261102c565b9050919050565b6110658161104b565b82525050565b5f60208201905061107e5f83018461105c565b92915050565b7f4e487b71000000000000000000000000000000000000000000000000000000005f52602260045260245ffd5b5f60028204905060018216806110c857607f821691505b6020821081036110db576110da611084565b5b50919050565b5f819050815f5260205f209050919050565b5f6020601f8301049050919050565b5f82821b905092915050565b5f6008830261113d7fffffffffffffffffffffffffffffffffffffffffffffffffffffffffffffffff82611102565b6111478683611102565b95508019841693508086168417925050509392505050565b5f819050919050565b5f61118261117d61117884610a01565b61115f565b610a01565b9050919050565b5f819050919050565b61119b83611168565b6111af6111a782611189565b84845461110e565b825550505050565b5f90565b6111c36111b7565b6111ce818484611192565b505050565b5b818110156111f1576111e65f826111bb565b6001810190506111d4565b5050565b601f82111561123657611207816110e1565b611210846110f3565b8101602085101561121f578190505b61123361122b856110f3565b8301826111d3565b50505b505050565b5f82821c905092915050565b5f6112565f198460080261123b565b1980831691505092915050565b5f61126e8383611247565b9150826002028217905092915050565b61128782610cde565b67ffffffffffffffff8111156112a05761129f610a4c565b5b6112aa82546110b1565b6112b58282856111f5565b5f60209050601f8311600181146112e6575f84156112d4578287015190505b6112de8582611263565b865550611345565b601f1984166112f4866110e1565b5f5b8281101561131b578489015182556001820191506020850194506020810190506112f6565b868310156113385784890151611334601f891682611247565b8355505b6001600288020188555050505b505050505050565b5f6040820190506113605f83018561105c565b61136d6020830184610ccf565b9392505050565b7f4e487b71000000000000000000000000000000000000000000000000000000005f52603260045260245ffd5b7f4e487b71000000000000000000000000000000000000000000000000000000005f52601160045260245ffd5b5f6113d882610a01565b91507fffffffffffffffffffffffffffffffffffffffffffffffffffffffffffffffff820361140a576114096113a1565b5b60018201905091905056fea2646970667358221220b95c18a07446501aa3d649b5f13982ae7c08bba9ef5ff1c19923f9219eb8a28e64736f6c63430008150033",
  "immutableReferences": {},
  "source": "// SPDX-License-Identifier: MIT\npragma solidity >=0.4.22 <0.9.0;\n// primary election contract\ncontract PrimaryContract {\n  event AddVote(address recipient, uint voteId);\n\n  struct Vote {\n    uint id;\n    uint voterId;\n    uint congressionalCandidateId;\n    uint stateCandidateId;\n    uint upperStateLegislativeCandidateId;\n    uint lowerStateLegislativeCandidateId;\n    string congressionalCandidate;\n    string stateCandidate;\n    string upperStateLegislativeCandidate;\n    string lowerStateLegislativeCandidate;\n  }\n\n  Vote[] public votes;\n  mapping(uint256 => address) public voteToOwner;\n\n  function addVote(\n    uint _voterId,\n    uint _congressionalCandidateId,\n    uint _stateCandidateId,\n    uint _upperStateLegislativeCandidateId,\n    uint _lowerStateLegislativeCandidateId,\n    string memory _congressionalCandidate,\n    string memory _stateCandidate,\n    string memory _upperStateLegislativeCandidate,\n    string memory _lowerStateLegislativeCandidate\n  ) external {\n    uint id = votes.length;\n    votes.push(Vote(id, _voterId, _congressionalCandidateId, _stateCandidateId, _upperStateLegislativeCandidateId, _lowerStateLegislativeCandidateId, _congressionalCandidate, _stateCandidate, _upperStateLegislativeCandidate, _lowerStateLegislativeCandidate));\n    voteToOwner[id] = msg.sender;\n    emit AddVote(msg.sender, id);\n  }\n\n  function getMyVotes() external view returns (Vote[] memory) {\n    Vote[] memory temporary = new Vote[](votes.length);\n    uint counter = 0;\n    for (uint i = 0; i < votes.length; i++) {\n      if (voteToOwner[i] == msg.sender) {\n        temporary[counter] = votes[i];\n        counter++;\n      }\n    }\n    Vote[] memory myVotes = new Vote[](counter);\n    for (uint i = 0; i < counter; i++) {\n      myVotes[i] = temporary[i];\n    }\n    return myVotes;\n  }\n}\n",
  "sourcePath": "/home/pjsingh22/trustballot/backend/contracts/PrimaryContract.sol",
  "compiler": {
    "name": "solc",
    "version": "0.8.21+commit.d9974bed.Emscripten.clang"
  },
  "schemaVersion": "3.4.16",
  "updatedAt": "2024-01-20T22:36:37.121Z",
  "networkType": "ethereum",
  "devdoc": {
    "kind": "dev",
    "methods": {},
    "version": 1
  },
  "userdoc": {
    "kind": "user",
    "methods": {},
    "version": 1
  }
}